{
  "contractName": "ProofOfExistence",
  "abi": [
    {
      "constant": true,
      "inputs": [],
      "name": "owner",
      "outputs": [
        {
          "name": "",
          "type": "address"
        }
      ],
      "payable": false,
      "stateMutability": "view",
      "type": "function"
    },
    {
      "inputs": [],
      "payable": false,
      "stateMutability": "nonpayable",
      "type": "constructor"
    },
    {
      "constant": false,
      "inputs": [
        {
          "name": "documentHash",
          "type": "bytes32"
        }
      ],
      "name": "notarizeHash",
      "outputs": [],
      "payable": false,
      "stateMutability": "nonpayable",
      "type": "function"
    },
    {
      "constant": true,
      "inputs": [
        {
          "name": "documentHash",
          "type": "bytes32"
        }
      ],
      "name": "doesProofExist",
      "outputs": [
        {
          "name": "",
          "type": "bool"
        }
      ],
      "payable": false,
      "stateMutability": "view",
      "type": "function"
    },
    {
      "constant": true,
      "inputs": [
        {
          "name": "documentHash",
          "type": "bytes32"
        }
      ],
      "name": "returnData",
      "outputs": [
        {
          "name": "",
          "type": "uint256"
        },
        {
          "name": "",
          "type": "uint256"
        }
      ],
      "payable": false,
      "stateMutability": "view",
      "type": "function"
    }
  ],
  "bytecode": "0x608060405234801561001057600080fd5b50336000806101000a81548173ffffffffffffffffffffffffffffffffffffffff021916908373ffffffffffffffffffffffffffffffffffffffff160217905550610338806100606000396000f300608060405260043610610062576000357c0100000000000000000000000000000000000000000000000000000000900463ffffffff1680631535884e1461006757806369b7215d146100985780638da5cb5b146100e15780639aaf946614610138575b600080fd5b34801561007357600080fd5b506100966004803603810190808035600019169060200190929190505050610184565b005b3480156100a457600080fd5b506100c76004803603810190808035600019169060200190929190505050610257565b604051808215151515815260200191505060405180910390f35b3480156100ed57600080fd5b506100f6610282565b604051808273ffffffffffffffffffffffffffffffffffffffff1673ffffffffffffffffffffffffffffffffffffffff16815260200191505060405180910390f35b34801561014457600080fd5b5061016760048036038101908080356000191690602001909291905050506102a7565b604051808381526020018281526020019250505060405180910390f35b6000809054906101000a900473ffffffffffffffffffffffffffffffffffffffff1673ffffffffffffffffffffffffffffffffffffffff163373ffffffffffffffffffffffffffffffffffffffff161415156101df57600080fd5b8060006001600083600019166000191681526020019081526020016000206000015414151561020d57600080fd5b426001600084600019166000191681526020019081526020016000206000018190555043600160008460001916600019168152602001908152602001600020600101819055505050565b6000806001600084600019166000191681526020019081526020016000206000015414159050919050565b6000809054906101000a900473ffffffffffffffffffffffffffffffffffffffff1681565b600080600115156102b784610257565b1515141561030657600160008460001916600019168152602001908152602001600020600001546001600085600019166000191681526020019081526020016000206001015491509150610307565b5b9150915600a165627a7a72305820e11f23502a5106e311d8fc6dc57c2482c6498c700294774f21fb95be3abf1def0029",
  "source": "pragma solidity ^0.4.23;\r\n\r\ncontract ProofOfExistence {\r\n    \r\n   struct hashData{\r\n       uint timestamp;\r\n       uint blocknumber;\r\n       \r\n      \r\n   }\r\n\r\n    address public owner;\r\n  \r\n    mapping (bytes32 => hashData) hashes;\r\n\r\n    modifier onlyOwner() {\r\n        require(msg.sender == owner);\r\n        _;\r\n    }\r\n\r\n    modifier noHashExistsYet(bytes32 documentHash) {\r\n        \r\n       require(hashes[documentHash].timestamp==0 );\r\n        _;\r\n    }\r\n\r\n    constructor() public {\r\n        owner = msg.sender;\r\n    }\r\n  \r\n    \r\n    function notarizeHash( bytes32 documentHash) onlyOwner noHashExistsYet(documentHash)  public {\r\n        \r\n        hashes[documentHash].timestamp = now  ;\r\n        hashes[documentHash].blocknumber = block.number ;\r\n\r\n    }\r\n\r\n    function doesProofExist(bytes32 documentHash) public view returns (bool) {\r\n     return hashes[documentHash].timestamp!=0;\r\n    }\r\n    \r\n    function returnData(bytes32 documentHash) public view returns(uint256,uint256){\r\n        if (doesProofExist(documentHash)==true){\r\n            return( hashes[documentHash].timestamp,\r\n        hashes[documentHash].blocknumber );\r\n        }\r\n    }\r\n}\r\n",
  "sourcePath": "D:\\Data Files\\Blockchain\\BlockchainAPI\\contracts\\ProofOfExistence.sol",
  "compiler": {
    "name": "solc",
    "version": "0.4.23+commit.124ca40d.Emscripten.clang"
  },
  "schemaVersion": "3.4.7",
  "updatedAt": "2022-06-25T10:25:34.920Z",
  "networkType": "ethereum",
  "devdoc": {
    "methods": {}
  },
  "userdoc": {
    "methods": {}
  }
}